:100000000C942A000C941B010C9444010C946D0177
:100010000C9447000C9447000C9447000C94470044
:100020000C9447000C9447000C9447000C94470034
:100030000C9447000C9447000C9447000C94470024
:100040000C9447000C9447000C9447000C94470014
:100050000C94470011241FBECFE5D8E0DEBFCDBF12
:1000600010E0A0E6B0E0E0E3F3E002C005900D92FE
:10007000A036B107D9F710E0A0E6B0E001C01D92AC
:10008000A636B107E1F70E946A000C9496010C9421
:100090000000959A8FEF99E6A8E181509040A0402A
:1000A000E1F700C000000895969A8FEF99E6A8E165
:1000B00081509040A040E1F700C000000895979A59
:1000C0008FEF99E6A8E181509040A040E1F700C091
:1000D0000000089580E061E00E948D0081E06CE006
:1000E0000E948D0082E060E00E948D0080E069E463
:1000F00070E00E94F70081E064E570E00E94F70084
:1001000082E06FE570E00E94F7008D9A8E9A8F9AD8
:100110007894959896989798FCCF833098F581308D
:1001200079F0813018F0823079F51AC0643070F5BA
:1001300085B7682B65BF8BB780648BBF80E008955F
:100140006C3031F0683021F0643011F0662301F535
:1001500085B7682B65BF8BB780688BBF80E008953B
:10016000603411F06623B1F48BB78F7D8BBF84B7F9
:10017000682B64BF8AB780628ABF8BB780628BBFEF
:1001800080E0089581E0089580E0089581E0089579
:1001900081E0089581E00895833028F5813081F071
:1001A000813018F0823009F516C08BB78F7B8BBF7A
:1001B00085B7817085BF85B7827085BF80E008955F
:1001C0008BB78F778BBF85B7847085BF85B78870F5
:1001D00085BF80E008958BB78F7D8BBF84B7807417
:1001E00084BF80E0089581E0089580E00895833021
:1001F000E0F461157105D9F0813059F0813018F0C3
:100200008230B9F40CC0709361006093600080E0AC
:100210000895709363006093620080E00895709386
:1002200065006093640080E0089581E0089581E0B6
:10023000089580E008951F920F920FB60F92112437
:100240002F933F934F935F936F937F938F939F93DE
:10025000AF93BF93EF93FF93E0916000F091610043
:10026000309709F00995FF91EF91BF91AF919F9160
:100270008F917F916F915F914F913F912F910F904F
:100280000FBE0F901F9018951F920F920FB60F92EE
:1002900011242F933F934F935F936F937F938F938B
:1002A0009F93AF93BF93EF93FF93E0916200F09120
:1002B0006300309709F00995FF91EF91BF91AF91DD
:1002C0009F918F917F916F915F914F913F912F916E
:1002D0000F900FBE0F901F9018951F920F920FB6A0
:1002E0000F9211242F933F934F935F936F937F93BC
:1002F0008F939F93AF93BF93EF93FF93E09164002D
:10030000F0916500309709F00995FF91EF91BF9149
:10031000AF919F918F917F916F915F914F913F919D
:100320002F910F900FBE0F901F901895F894FFCF4C
:00000001FF
